:020000040800F2
:10000000600800200D020008150200081702000811
:10001000190200081B0200081D0200080000000071
:100020000000000000000000000000001F020008A7
:100030002102000800000000230200082502000839
:1000400027020008270200082702000827020008EC
:1000500027020008270200082702000827020008DC
:1000600027020008270200082702000827020008CC
:1000700027020008270200082702000827020008BC
:1000800027020008270200082702000827020008AC
:10009000270200082702000827020008270200089C
:1000A000270200082702000827020008270200088C
:1000B000270200082702000827020008270200087C
:1000C000270200082702000827020008270200086C
:1000D000270200089D0300089F030008A1030008F1
:1000E000270200082702000827020008270200084C
:1000F000270200082702000827020008270200083C
:10010000270200082702000827020008270200082B
:10011000270200082702000827020008270200081B
:10012000270200082702000827020008270200080B
:1001300027020008270200082702000827020008FB
:1001400027020008270200082702000827020008EB
:10015000270200082702000827020008A30300085E
:1001600027020008270200082702000827020008CB
:1001700027020008270200082702000800000000EC
:10018000270200082702000800F002F800F02EF80D
:100190000AA090E8000C82448344AAF10107DA45E2
:1001A00001D100F023F8AFF2090EBAE80F0013F006
:1001B000010F18BFFB1A43F001031847900C000011
:1001C000A00C00000023002400250026103A28BFC0
:1001D00078C1FBD8520728BF30C148BF0B607047B9
:1001E0001FB500F02DFE1FBD10B510BD00F031F899
:1001F0001146FFF7F5FF00F089F900F04FF803B45E
:10020000FFF7F2FF03BC00F057F8000009488047F1
:1002100009480047FEE7FEE7FEE7FEE7FEE7FEE7E8
:10022000FEE7FEE7FEE7FEE704480549054A064B00
:1002300070470000C9020008890100086000002022
:1002400060080020600400206004002070477047B0
:100250007047754600F02CF8AE46050069465346D7
:1002600020F00700854618B020B5FFF7DDFFBDE898
:1002700020404FF000064FF000074FF000084FF00D
:10028000000B21F00701AC46ACE8C009ACE8C0099E
:10029000ACE8C009ACE8C0098D46704710B504460B
:1002A000AFF300802046BDE81040FFF7A8BF000074
:1002B000004870470000002001491820ABBEFEE74F
:1002C000260002007047000008B53048006840F47E
:1002D00070002E4908602E48006840F001002C494B
:1002E000086000BF2A48006800F002000028F9D02A
:1002F00000BF27480830006840F0800024490831DA
:1003000008600020009002E00098401C00900098D7
:100310005028F9D31E480830006840F090001C496E
:10032000083108600020009002E00098401C009016
:1003300000985028F9D300BF15480830006820F015
:10034000030013490831086011480068114908404A
:100350000F4908600846006820F4802008600020EB
:100360000B490831086000BF0948083000680020C8
:100370000028F9D108480649091D086000200449F1
:100380000C31086000F0E4FA08BD000088ED00E0E0
:1003900000380240FFFFF6FE10300024704770471F
:1003A0007047704710B540F6024000F0C9F94FF4AD
:1003B00080430022012140F6024000F042F84FF451
:1003C000804302220021044800F062F84FF480418B
:1003D000014800F034F810BD00080240F0B50346B3
:1003E0001C6A5D6A00200DE00126864016403EB181
:1003F00087000F26BE40B443860001FA06F6344358
:10040000461CB0B20828EFD3082011E00126864030
:1004100016405EB1A0F10806B7000F26BE40B543F6
:10042000A0F10806B60001FA06F63543461CB0B244
:100430001028EBD31C625D62F0BD81627047816160
:100440007047F0B504460D4616462168E268002064
:1004500019E0012787401F409FB14FEA400C032756
:1004600007FA0CF7B943470005FA07F739434FEA93
:10047000400C032707FA0CF7BA43470006FA07F7C0
:100480003A43471CB8B21028E3D32160E260F0BDC4
:10049000F0B50C461546012C03D146681E43466054
:1004A00002E046689E434660826800210DE0012616
:1004B0008E401E403EB14F000326BE40B2434E0068
:1004C00005FA06F632434E1CB1B21029EFD3826012
:1004D000F0BD000010B540F6024000F031F94FF4D5
:1004E00000530022012140F60240FFF7AAFF4FF41B
:1004F0000053022200210448FFF7CAFF4FF40051C5
:100500000148FFF79AFF10BD000802404FF4A060B9
:1005100000F07AF84FF4E13000F01EFA4FF4E130C9
:1005200000F072FA4FF4E13000F0C2FA4FF4E1301B
:1005300000F016FBFFF7CEFFFFF734FF00F036F9AF
:1005400000BFFEE72DE9F04103460D4616460024A4
:100550000027A0462A48006800F4E060B0F5E06F8C
:1005600003D100BF4FF0040830E02548006800F4D4
:10057000E060B0F5C06F03D101274FF0030825E01C
:100580001F48006800F4E060B0F5A06F02D10227B8
:10059000B8461BE01A48006800F4E060B0F5806FD0
:1005A00003D103274FF0010810E01548006800F45C
:1005B000E060B0F5407F03D104274FF0000805E06C
:1005C0004FF4A06000F020F80227B846C7F10400FD
:1005D00005FA00F4C8F104010F20C840304004437C
:1005E00024010848C45403F01F0101208840591118
:1005F000890001F1E021C1F80001BDE8F0810000AF
:100600000CED00E000E400E002490143024A116001
:10061000704700000000FA050CED00E02DE9F04FF6
:100620008CB0064600200A903EA090E8004CC068BE
:10063000CDE905BECDF810A007900FF2EC0ADAE97B
:10064000000ACDE9020A0FF2E00ADAE9000ACDE970
:10065000000A38480068C0F381000B900B9820B165
:10066000012804D0022828D103E0334927E0334988
:1006700025E03048001F006800F03F072D48001FAC
:100680000068C0F3881C2B48001F0068C0F30140BD
:10069000401C4FEA40092748001F006800F480080A
:1006A000B8F5800F01D1254B00E0234BB3FBF7F0E9
:1006B00000FB0CF0B0FBF9F101E01F4900BF00BFE7
:1006C0001C480068C0F3031404A8055D21FA05F274
:1006D00018480068C0F3822402A8055D22FA05F0DC
:1006E000099014480068C0F342341DF8045022FAFF
:1006F00005F0089036B1012E06D0022E06D0032E4A
:100700000AD106E00A9108E00A9206E009980A90E8
:1007100003E008980A9000E000BF00BF0A980CB000
:10072000BDE8F08F0000000000000000010203049B
:1007300006070809083802400024F40040787D01CB
:10074000074A02EB9011D1F8001800F01F030122B4
:100750009A401143024B03EB9012C2F80018704705
:1007600000300240074A02EB9011D1F8001800F067
:100770001F0301229A409143024B03EB9012C2F8EF
:100780000018704700300240074A02EB9011D1F880
:10079000001800F01F0301229A401143024B03EBA3
:1007A0009012C2F8001870470030024000B587B0C0
:1007B0004FF44060FFF7C4FF41F20C10FFF7C0FF99
:1007C000F02205211248FFF709FEB0230022022182
:1007D0000F48FFF736FEB023022200210C48FFF736
:1007E00057FE4FF4827000900020019002904FF469
:1007F0000070039000200490059010200690694638
:10080000044800F00EF8034800F006F807B000BDF9
:100810000000024000300140016841F040010160E9
:10082000704702460020106800F441500B681843DE
:100830004B6818438B681843CB6818430B691843FF
:100840004B6918438B6918431060D36923F4006324
:10085000D3617047002000213A4A126842F0010239
:10086000384B1A6000BF401C364A126802F0020181
:1008700011B9B0F5A06FF6D1324A126802F0020247
:100880000AB900BFFEE72F4A4032126842F0805298
:100890002C4B40331A602C4A126842F440422A4BD7
:1008A0001A60284A08321268264B08331A601A4622
:1008B000126842F400421A601A46126842F4A052CA
:1008C0001A60224A1B1F1A601A1F126842F08072B7
:1008D0001B1F1A6000BF1B4A126802F00072002A38
:1008E000F9D0194A126842F48032174B1A6000BFDF
:1008F000154A526802F48032002AF9D0124A12686E
:1009000042F40032104B1A6000BF0F4A526802F4E2
:100910000032002AF9D00B4A0832126822F0030292
:10092000084B08331A601A46126842F002021A6035
:1009300000BF044A0832126802F00802002AF8D008
:100940007047000000380240007000401064000949
:1009500010B5FFF77FFF10BD10B504464FF440609F
:10096000FFF7EEFE41F20410FFF7EAFE4FF40072CB
:1009700007212348FFF732FD4FF48062072120480A
:10098000FFF72CFD4FF40073012202211C48FFF7F2
:1009900058FD4FF40073032200211948FFF778FD3A
:1009A0004FF48063012202211548FFF74AFD1548E4
:1009B00000F09EF92146134800F026F90021114865
:1009C00000F016FA00210F4800F032FA00210D481D
:1009D00000F01EFA08210B4800F022FA0421094811
:1009E00000F00EFA074800F0F1F900221146252028
:1009F000FFF7A8FD40F20531024800F0ECF910BD08
:100A0000000002400010014010B504464FF4406061
:100A1000FFF796FE41F21100FFF792FE0422072134
:100A20002148FFF7DBFC082207211F48FFF7D6FC0F
:100A30000423012202211C48FFF703FD04230222A4
:100A400000211948FFF724FD08230122022116483E
:100A5000FFF7F7FC154800F04BF92146134800F06A
:100A6000D3F80021114800F0C3F900210F4800F02D
:100A7000DFF900210D4800F0CBF908210B4800F008
:100A8000CFF90421094800F0BBF9084800F09EF9AD
:100A9000012200212620FFF755FD40F205310348D1
:100AA00000F099F910BD0000000002400044004031
:100AB00010B5044640F60140FFF742FE41F2120035
:100AC000FFF73EFE4FF4806207212348FFF786FCC4
:100AD0004FF4006207212048FFF780FC4FF4806349
:100AE000012202211C48FFF7ACFC4FF48063022274
:100AF00000211948FFF7CCFC4FF4006301220221CA
:100B00001548FFF79EFC154800F0F2F821461348FF
:100B100000F07AF80021114800F06AF900210F482E
:100B200000F086F900210D4800F072F908210B4809
:100B300000F076F90421094800F062F9074800F056
:100B400045F9002201212720FFF7FCFC40F2053186
:100B5000024800F040F910BD000402400048004087
:100B600010B5044640F60240FFF7EAFD41F20510D9
:100B7000FFF7E6FD402207212148FFF72FFC8022E6
:100B800007211F48FFF72AFC4023012202211C48AD
:100B9000FFF757FC4023022200211948FFF778FC99
:100BA0008023012202211648FFF74BFC154800F074
:100BB0009FF82146134800F027F80021114800F063
:100BC00017F900210F4800F033F900210D4800F01B
:100BD0001FF908210B4800F023F90421094800F00F
:100BE0000FF9084800F0F2F8012211464720FFF7FC
:100BF000A9FC40F20531034800F0EDF810BD0000FB
:100C000000080240001401402DE9F04704460D465B
:100C10000027B846B94600263349601A8C4235D0C1
:100C20000CDC32482044E8B1B0F5806F1FD0B0F53D
:100C3000006F21D0B0F5406F32D122E0B0F5806F67
:100C400029D0B0F5184F03D0B0F51C4F28D104E0DF
:100C50000320FFF7E3FC074623E00320FFF7DEFC59
:100C600007461EE00220FFF7D9FC074619E00220E4
:100C7000FFF7D4FC074614E00220FFF7CFFC07463D
:100C80000FE00220FFF7CAFC07460AE00220FFF748
:100C9000C5FC074605E00220FFF7C0FC074600E060
:100CA00000BF00BFE06800F4004070B1780000EBC6
:100CB0005500B0FBF5F64FF6F07006EA0008C6F3F3
:100CC000420948EA0900A0600CE007EB5500B0FBC0
:100CD000F5F64FF6F07006EA000806F00F0948EA4C
:100CE0000900A060BDE8F0870078004000BCFFBFAD
:100CF00010B504463349601A8C424DD00CDC3248A2
:100D00002044E0B1B0F5806F22D0B0F5006F31D053
:100D1000B0F5406F52D136E0B0F5806F45D0B0F5F8
:100D2000184F03D0B0F51C4F48D11AE040F604101C
:100D3000FFF72AFD40F60410FFF714FD3FE040F6F0
:100D40001100FFF721FD40F61100FFF70BFD36E023
:100D500040F61200FFF718FD40F61200FFF702FD03
:100D60002DE040F60510FFF70FFD40F60510FFF7E8
:100D7000F9FC24E040F61300FFF706FD40F61300EF
:100D8000FFF7F0FC1BE040F61400FFF7FDFC40F617
:100D90001400FFF7E7FC12E040F61E00FFF7F4FC3A
:100DA00040F61E00FFF7DEFC09E040F61F00FFF7EB
:100DB000EBFC40F61F00FFF7D5FC00E000BF00BFD2
:100DC00010BD00000078004000BCFFBFC16841F4C6
:100DD0000051C160704710B500EB9112126801F02C
:100DE0001F040123A3401A4300EB91131A6010BDA6
:100DF000C26822F4C062C260C2680A43C26070471F
:100E00000A460021C16821F004011143C160704706
:100E1000026922F44052026102690A43026170478A
:100E20000A460021C16821F008011143C1607047E2
:100E3000C26822F48052C260C2680A43C26070472E
:100E40004FF04070E1EE100A704700005C0E0008A1
:0C0E50000000002060080000C401000841
:040000050800018965
:00000001FF
